:100000000C9446000C9465000C9465000C946500FB
:100010000C9465000C9465000C9465000C946500CC
:100020000C9465000C9465000C9465000C946500BC
:100030000C9465000C9465000C9465000C946500AC
:100040000C9465000C9465000C9465000C9465009C
:100050000C9465000C9465000C9465000C9465008C
:100060000C9465000C9465000C9465000C9465007C
:100070000C9465000C9465000C9465000C9465006C
:100080000C9465000C9465000C94650011241FBE4F
:10009000CFEFD0E4DEBFCDBF11E0A0E0B1E0E0E4FF
:1000A000F7E000E00BBF02C007900D92AE32B1073F
:1000B000D9F721E0AEE2B1E001C01D92AC33B20746
:1000C000E1F70E94E6010C949E030C940000CF938C
:1000D000C82F8A3019F48DE00E9467008091C0001B
:1000E00085FFFCCFC093C60080E090E0CF910895DB
:1000F000CF92DF92EF92FF926B017C0160912E0113
:1001000070912F018091300190913101A7019601EA
:100110000E940A02882309F458C020E030E0A901B7
:10012000C701B6010E940A02811106C0E1E9F0E0B0
:1001300080818870808305C0E1E9F0E08081836080
:10014000808328E539E344E75FE3C701B6010E94F5
:100150000A0288233CF48FEF9FEF909399008093DD
:10016000980027C020E034E244EF56E4C701B6010E
:100170000E942C0318162CF41092990010929800EB
:1001800018C020E030E040E053E4C701B6010E940F
:1001900031039B01AC0160E074E284EF9AE40E94B9
:1001A0000F020E948102615071097093990060935F
:1001B00098001092950010929400C0922E01D09257
:1001C0002F01E0923001F0923101FF90EF90DF902B
:1001D000CF90089580E4809390008BE0809391000D
:1001E00060E070E0CB010E947800089510929000CA
:1001F00010929100089581309105F9F01CF4892B3B
:1002000041F028C08230910549F08330910571F0AA
:1002100021C010923B0182E090E00895009922C035
:1002200081E080933B0181E090E0089500991AC03D
:1002300010923B0181E090E00895009B04C0209162
:100240003B01213051F0009B0DC020913B01222346
:1002500039F0089580E090E0089583E090E00895FB
:1002600082E090E00895CF93DF93EC018130910517
:1002700081F01CF4892B41F067C08230910509F4AC
:1002800049C0039769F160C010923A01C1E0D0E023
:100290006FC080B190E08095909586709927029705
:1002A00059F480913A01882309F451C08150809318
:1002B0003A01C3E0D0E05CC080B190E080959095B9
:1002C00086709927049709F053C080913A018730CE
:1002D00008F040C08F5F80933A01C2E0D0E048C090
:1002E00080B190E08095909586709927892BA9F12F
:1002F00080B190E080959095867099270497C1F51C
:1003000080913A01873060F58F5F80933A01C2E0B7
:10031000D0E02EC080B190E08095909586709927AE
:10032000892B09F180B190E080959095867099278E
:100330000297F1F480913A018823C1F081508093B3
:100340003A01C3E0D0E014C0C0E0D0E011C0C3E087
:10035000D0E00EC0C2E0D0E00BC0C1E0D0E008C0E9
:10036000C2E0D0E005C0C1E0D0E002C0C3E0D0E010
:10037000C430D10510F580913B018130C1F4E0918A
:100380003A01F0E0EE0FFF1FEE0FFF1FE050FF4FAE
:10039000608171818281938160933601709337010E
:1003A00080933801909339010E9478000BC060E07F
:1003B00070E0CB010E94780005C060E070E0CB01E6
:1003C0000E947800CE01DF91CF91089511B88FEF90
:1003D00082B984B915B80E94EA00109233011092D4
:1003E00032011092350110923401809132019091C6
:1003F00033010E94FB00909333018093320180917E
:100400003401909135010E9433019093350180931E
:100410003401EBCF0E94B70208F481E008950E94F6
:1004200023020C94F2020E94EB0258F00E94E402B4
:1004300040F029F45F3F29F00C94DB0251110C9439
:1004400026030C94E1020E94030368F39923B1F39D
:10045000552391F3951B550BBB27AA2762177307EA
:10046000840738F09F5F5F4F220F331F441FAA1F7E
:10047000A9F335D00E2E3AF0E0E832D0915050403A
:10048000E695001CCAF72BD0FE2F29D0660F771FE8
:10049000881FBB1F261737074807AB07B0E809F0CE
:1004A000BB0B802DBF01FF2793585F4F3AF09E3F53
:1004B000510578F00C94DB020C9426035F3FE4F3C3
:1004C000983ED4F3869577956795B795F7959F5F96
:1004D000C9F7880F911D9695879597F90895E1E0E2
:1004E000660F771F881FBB1F621773078407BA0741
:1004F00020F0621B730B840BBA0BEE1F88F7E0959C
:1005000008950E9488026894B1110C9426030895FE
:100510000E940B0388F09F5798F0B92F9927B75185
:10052000B0F0E1F0660F771F881F991F1AF0BA9597
:10053000C9F714C0B13091F00E942503B1E00895CD
:100540000C942503672F782F8827B85F39F0B93FBF
:10055000CCF3869577956795B395D9F73EF490954A
:100560008095709561957F4F8F4F9F4F0895990F9C
:100570000008550FAA0BE0E8FEEF16161706E8076D
:10058000F907C0F012161306E407F50798F0621B8E
:10059000730B840B950B39F40A2661F0232B242B63
:1005A000252B21F408950A2609F4A140A6958FEF82
:1005B000811D811D089597F99F6780E870E060E0D4
:1005C00008959FEF80EC089500240A9416161706EC
:1005D00018060906089500240A9412161306140634
:1005E00005060895092E0394000C11F4882352F097
:1005F000BB0F40F4BF2B11F460FF04C06F5F7F4F4F
:100600008F4F9F4F089557FD9058440F551F59F035
:100610005F3F71F04795880F97FB991F61F09F3FEF
:1006200079F087950895121613061406551FF2CF18
:100630004695F1DF08C0161617061806991FF1CF68
:1006400086957105610508940895E894BB2766278F
:100650007727CB0197F908950E94B70208F48FEF2E
:1006600008950E9444030C94F2020E94E40238F0C0
:100670000E94EB0220F0952311F00C94DB020C9405
:10068000E10211240C9426030E94030370F3959F4A
:10069000C1F3950F50E0551F629FF001729FBB2779
:1006A000F00DB11D639FAA27F00DB11DAA1F649F15
:1006B0006627B00DA11D661F829F2227B00DA11DC8
:1006C000621F739FB00DA11D621F839FA00D611D4E
:1006D000221F749F3327A00D611D231F849F600D6F
:1006E000211D822F762F6A2F11249F5750409AF098
:1006F000F1F088234AF0EE0FFF1FBB1F661F771F24
:10070000881F91505040A9F79E3F510580F00C94EE
:10071000DB020C9426035F3FE4F3983ED4F3869506
:1007200077956795B795F795E7959F5FC1F7FE2B8E
:10073000880F911D9695879597F90895F894FFCFA6
:10074000A4D082437BD49243A4D0A443719DAE43F2
:100750000000C4430000DC43A4F0F64300D0024490
:0E076000000000020000000067000000000022
:00000001FF
