:100000000C9446000C9465000C9465000C946500FB
:100010000C9465000C9465000C9465000C946500CC
:100020000C9465000C9465000C9465000C946500BC
:100030000C9465000C94A3000C9465000C9465006E
:100040000C9465000C9465000C9465000C9465009C
:100050000C9465000C9465000C9465000C9465008C
:100060000C9465000C9465000C9465000C9465007C
:100070000C9465000C9465000C9465000C9465006C
:100080000C9465000C9465000C94650011241FBE4F
:10009000CFEFD0E4DEBFCDBF11E0A0E0B1E0ECE8EF
:1000A000F7E000E00BBF02C007900D92AE3AB10737
:1000B000D9F721E0AEEAB1E001C01D92A03CB20741
:1000C000E1F70E9414020C94C4030C940000CF9337
:1000D000C82F8A3019F48DE00E9467008091C0001B
:1000E00085FFFCCFC093C60080E090E0CF910895DB
:1000F0008BE0809381008DE790E09093890080935E
:10010000880082E080936F00109285001092840036
:1001100080919B0190919C01A0919D01B0919E01C5
:100120008093AE019093AF01A093B001B093B10161
:100130008FB780688FBF089510928100089581E085
:100140008093B20108951F920F920FB60F9211245F
:100150000BB60F922F933F934F935F936F937F93C1
:100160008F939F93AF93BF93EF93FF938091AE01D3
:100170009091AF01A091B001B091B1010197A10997
:10018000B1098093AE019093AF01A093B001B093F9
:10019000B101892B8A2B8B2B91F40E949F008091B7
:1001A0009B0190919C01A0919D01B0919E01809333
:1001B000AE019093AF01A093B001B093B101FF9154
:1001C000EF91BF91AF919F918F917F916F915F91CF
:1001D0004F913F912F910F900BBE0F900FBE0F903C
:1001E0001F90189560939B0170939C0180939D01D3
:1001F00090939E016093AE017093AF018093B00124
:100200009093B1010895CF92DF92EF92FF926B012C
:100210007C016091B3017091B4018091B50190911E
:10022000B601A70196010E943002882309F458C044
:1002300020E030E0A901C701B6010E94300281111F
:1002400006C0E1E9F0E080818870808305C0E1E9C3
:10025000F0E080818360808328E539E344E75FE351
:10026000C701B6010E94300288233CF48FEF9FEF54
:10027000909399008093980027C020E034E244EFE7
:1002800056E4C701B6010E94520318162CF41092CE
:1002900099001092980018C020E030E040E053E44C
:1002A000C701B6010E9457039B01AC0160E074E2F4
:1002B00084EF9AE40E9435020E94A70261507109FE
:1002C000709399006093980010929500109294009A
:1002D000C092B301D092B401E092B501F092B601A0
:1002E000FF90EF90DF90CF90089580E4809390008E
:1002F0008BE08093910060E070E0CB010E940301ED
:100300000895109290001092910008958091BC0180
:100310009091BD018130910571F030F082309105EE
:10032000F1F0039771F13DC081E090E09093BD0141
:100330008093BC013AC000990BC01092BB0110928F
:10034000BE0182E090E09093BD018093BC012DC07E
:1003500081E090E09093BD018093BC0126C0809124
:10036000BB018F3138F482E090E09093BD0180931F
:10037000BC011BC083E090E09093BD018093BC0161
:1003800014C0009907C083E090E09093BD01809372
:10039000BC010BC081E090E09093BD018093BC0153
:1003A00004C01092BD011092BC018091BC019091DB
:1003B000BD018230910549F010F00397A1F560E08E
:1003C00070E0CB010E94030108958091BE018F5F10
:1003D0008093BE019091BB01292F30E0F901EE0F0F
:1003E000FF1FEE0FFF1FE15EFE4F408151816281D2
:1003F00073814093B7015093B8016093B901709332
:10040000BA01F901E050FF4F20812093BF01281766
:1004100028F0CB01BA010E94030108959F5F9093D9
:10042000BB011092BE01089511B88FEF82B984B953
:1004300015B862E370E080E090E00E94F2000E9454
:1004400078000E9475011092BD011092BC010E94BB
:1004500086018091B2018823E1F31092B201F7CFB7
:100460000E94DD0208F481E008950E9449020C9484
:1004700018030E94110358F00E940A0340F029F467
:100480005F3F29F00C94010351110C944C030C9420
:1004900007030E94290368F39923B1F3552391F3CD
:1004A000951B550BBB27AA2762177307840738F0E3
:1004B0009F5F5F4F220F331F441FAA1FA9F335D040
:1004C0000E2E3AF0E0E832D091505040E695001CF4
:1004D000CAF72BD0FE2F29D0660F771F881FBB1FAE
:1004E000261737074807AB07B0E809F0BB0B802D8C
:1004F000BF01FF2793585F4F3AF09E3F510578F0B8
:100500000C9401030C944C035F3FE4F3983ED4F346
:10051000869577956795B795F7959F5FC9F7880F8B
:10052000911D9695879597F90895E1E0660F771FDD
:10053000881FBB1F621773078407BA0720F0621B6E
:10054000730B840BBA0BEE1F88F7E09508950E9499
:10055000AE026894B1110C944C0308950E943103CB
:1005600088F09F5798F0B92F9927B751B0F0E1F074
:10057000660F771F881F991F1AF0BA95C9F714C024
:10058000B13091F00E944B03B1E008950C944B03FD
:10059000672F782F8827B85F39F0B93FCCF386955D
:1005A00077956795B395D9F73EF4909580957095BA
:1005B00061957F4F8F4F9F4F0895990F0008550FFA
:1005C000AA0BE0E8FEEF16161706E807F907C0F0D9
:1005D00012161306E407F50798F0621B730B840BE1
:1005E000950B39F40A2661F0232B242B252B21F4BB
:1005F00008950A2609F4A140A6958FEF811D811D5B
:10060000089597F99F6780E870E060E008959FEF94
:1006100080EC089500240A94161617061806090699
:10062000089500240A941216130614060506089568
:10063000092E0394000C11F4882352F0BB0F40F4F0
:10064000BF2B11F460FF04C06F5F7F4F8F4F9F4F30
:10065000089557FD9058440F551F59F05F3F71F0B2
:100660004795880F97FB991F61F09F3F79F0879519
:100670000895121613061406551FF2CF4695F1DFA2
:1006800008C0161617061806991FF1CF8695710532
:10069000610508940895E894BB2766277727CB0166
:1006A00097F908950E94DD0208F48FEF08950E94E3
:1006B0006A030C9418030E940A0338F00E94110385
:1006C00020F0952311F00C9401030C9407031124DE
:1006D0000C944C030E94290370F3959FC1F3950F6E
:1006E00050E0551F629FF001729FBB27F00DB11DB6
:1006F000639FAA27F00DB11DAA1F649F6627B00D46
:10070000A11D661F829F2227B00DA11D621F739F2E
:10071000B00DA11D621F839FA00D611D221F749F3C
:100720003327A00D611D231F849F600D211D822F83
:10073000762F6A2F11249F5750409AF0F1F08823AA
:100740004AF0EE0FFF1FBB1F661F771F881F9150D7
:100750005040A9F79E3F510580F00C9401030C9482
:100760004C035F3FE4F3983ED4F386957795679505
:10077000B795F795E7959F5FC1F7FE2B880F911D01
:0C0780009695879597F90895F894FFCF9F
:10078C00020202020202020204010101010108023A
:10079C00020202020202020204010101010108A488
:1007AC00D0A44300000000A4D0A4430000000071BA
:1007BC009DAE43000000000000C44300000000A4F4
:1007CC00D0A443000000000000C44300000000005F
:1007DC0000DC4300000000A4F0F64300000000A47D
:1007EC00D0A44300000000A4D0A44300000000717A
:1007FC009DAE43000000000000C4430000000071E7
:10080C009DAE43000000000000C443000000000047
:10081C0000DC4300000000A4F0F6430100000000DF
:0E082C00000002000000006700000000000055
:00000001FF
